:100000000C9448000C945A000C945A000C945A001A
:100010000C945A000C945A000C945A000C945A00F8
:100020000C945A000C94C4000C942D010C945A00AA
:100030000C945A000C945A000C945A000C945A00D8
:100040000C945A000C945A000C945A000C945A00C8
:100050000C945A000C945A000C945A000C94D4013D
:100060000C945A000C945A000C945A000C945A00A8
:100070000C945A000C945A000C945A000C945A0098
:100080000C945A000C945A000C945A000C945A0088
:1000900011241FBECFEFCDBFDFE3DEBF28E2A0E01B
:1000A000B8E201C01D92AC30B207E1F70E9416021F
:1000B0000C94DE020C940000E0E6F4E080818160A4
:1000C0008083848181608483808182608083848155
:1000D000826084838081846080838481846084835F
:1000E00080818860808384818860848308958130E2
:1000F000910529F4E0E6F4E024812E7F2483892B06
:1001000029F4E0E6F4E084818160848308958130FD
:10011000910529F4E0E6F4E024812D7F2483892BE6
:1001200029F4E0E6F4E084818260848308958130DC
:10013000910529F4E0E6F4E024812B7F2483892BC8
:1001400029F4E0E6F4E084818460848308958130BA
:10015000910529F4E0E6F4E02481277F2483892BAC
:1001600029F4E0E6F4E084818860848308951092A5
:100170000A2810920B2880E090E00E947700E0E0CF
:10018000FAE08081808308951F920F920FB60F923C
:1001900011242F933F934F935F936F937F938F938C
:1001A0009F93AF93BF93EF93FF9380E090E00E9403
:1001B0007700E0E0FAE01082838583872091A9042C
:1001C0008091042890910528892B71F42032D9F46C
:1001D00081E090E00E947700E0E0FAE080818160B9
:1001E000808380E182870FC0E0E0FAE080818E7F2B
:1001F000808381E090E00E94A70084E090E08093FB
:10020000022890930328FF91EF91BF91AF919F91A6
:100210008F917F916F915F914F913F912F910F90AF
:100220000FBE0F901F901895809108289091092873
:10023000892B49F4E0E0FAE0828580628287808140
:1002400081608083089580E090E00E948700E0E074
:10025000FAE080818E7F808308951F920F920FB6FF
:100260000F9211242F933F934F935F936F937F933C
:100270008F939F93AF93BF93EF93FF93E0E0FAE0E8
:100280008385838781E090E00E94870089EF90E07A
:100290000197F1F700C0000080E090E00E94870025
:1002A000FF91EF91BF91AF919F918F917F916F914E
:1002B0005F914F913F912F910F900FBE0F901F9024
:1002C00018958091062890910728019721F480E0E5
:1002D00090E00E949700089589EF90E00197F1F770
:1002E00000C000008091A9048032A1F489EF90E061
:1002F0000197F1F700C000008091A904803451F407
:1003000089EF90E00197F1F700C000008091A90407
:10031000803279F0809100289091012883309105F6
:100320005CF4019680930028909301280E946C0150
:10033000089581E090E0089580E090E00895809134
:10034000042890910528892B89F481E090E080931E
:10035000042890930528E0E0F6E080818E7F80837A
:10036000E0E0FAE080818E7F808308950E946C0136
:10037000892B59F481E090E00E94A70084E090E08E
:1003800080930228909303280895109204281092D5
:100390000528E0E0F6E0808181608083E0E0FAE01B
:1003A00080818E7F808308951F920F920FB60F92E7
:1003B00011242F933F934F935F936F937F938F936A
:1003C0009F93AF93BF93EF93FF93E0E0F6E08385B5
:1003D00083878091042890910528892B59F481E026
:1003E00090E00E94970081E090E08093062890932F
:1003F00007280BC081E090E00E94A700E0E0FAE04F
:100400008081816080830E949F01FF91EF91BF9165
:10041000AF919F918F917F916F915F914F913F919C
:100420002F910F900FBE0F901F9018950E945C00A7
:10043000E0E0F6E08081808380818260808380813B
:1004400081608083868187608683848581608487DC
:1004500083E090E0828B938B848995898A60848B7A
:10046000958B828582608287848181608483A0E00D
:10047000BAE090961D921C92919711961C9211973A
:1004800084E190E098968D939C9399978EE08C935D
:100490008C938EEF90E096968D939C9397978FE731
:1004A00090E09A968D939C939B9711968C911197BF
:1004B000836011968C93A0EAB4E055968C91559781
:1004C000896055968C93559756968C91569789606E
:1004D00056968C93789480858160808713C0E0EA7B
:1004E000F4E04185242F30E041872032310529F4A2
:1004F000019680930228909303282034310511F44B
:100500000E94B7008091022890910328009739F348
:1005100014C0E0EAF4E02185822F90E02187803248
:10052000910531F44F5F5F4F4093022850930328A9
:100530008034910511F40E941401409102285091D9
:1005400003284130510529F314C0E0EAF4E0218585
:10055000822F90E021878032910531F44F5F5F4F09
:1005600040930228509303288034910511F40E948F
:10057000610140910228509103284230510529F32E
:1005800012C0E0EAF4E02185822F90E021878032DA
:10059000910521F4109202281092032880349105CD
:1005A00011F40E949F0180910228909103288330CA
:1005B000910539F384309105E9F3A4CFF894FFCF86
:00000001FF
