:100000000C9448000C945A000C945A000C945A001A
:100010000C945A000C945A000C945A000C945A00F8
:100020000C945A000C9475010C945A000C945A00CC
:100030000C945A000C945A000C945A000C945A00D8
:100040000C945A000C945A000C945A000C945A00C8
:100050000C945A000C945A000C945A000C94A10071
:100060000C945A000C945A000C945A000C945A00A8
:100070000C945A000C94FA000C945A000C945A00F8
:100080000C945A000C945A000C945A000C945A0088
:1000900011241FBECFEFCDBFDFE3DEBF28E2A0E01B
:1000A000B8E201C01D92A630B207E1F70E94A40198
:1000B0000C94FC010C940000E0E6F4E08081826086
:1000C0008083848182608483808184608083848152
:1000D0008460848380818860808384818860848355
:1000E00008958130910529F4E0E6F4E024812D7F24
:1000F0002483892B29F4E0E6F4E084818260848300
:1001000008958130910529F4E0E6F4E024812B7F05
:100110002483892B29F4E0E6F4E0848184608483DD
:1001200008958130910529F4E0E6F4E02481277FE9
:100130002483892B29F4E0E6F4E0848188608483B9
:1001400008951F920F920FB60F9211242F933F9391
:100150004F935F936F937F938F939F93AF93BF93CF
:10016000EF93FF93E0E0F6E0838583878091042896
:1001700090910528892BB9F481E090E00E948100DC
:1001800080910228909103280196809302289093F1
:1001900003288091002890910128019780930028DE
:1001A000909301280DC081E090E00E949100809121
:1001B00002289091032801978093022890930328A6
:1001C000E0E0FAE08EE0808380818160808380E1DE
:1001D0008287FF91EF91BF91AF919F918F917F9116
:1001E0006F915F914F913F912F910F900FBE0F90A4
:1001F0001F9018951F920F920FB60F9211242F93F4
:100200003F934F935F936F937F938F939F93AF939E
:10021000BF93EF93FF93E0EAF4E0818581858187C6
:10022000803259F58091042890910528892BB9F4E2
:1002300081E090E00E949100809102289091032833
:100240000196809302289093032880910028909132
:100250000128019680930028909301282CC081E00A
:1002600090E00E94810080910228909103280197DC
:1002700080930228909303281EC081E090E00E94A2
:10028000710081E090E00E94810081E090E00E9496
:10029000910081E090E0809304289093052880E00D
:1002A00090E00E94710080E090E00E94810080E078
:1002B00090E00E949100E0E0FAE08EE0808380818F
:1002C0008160808380E18287FF91EF91BF91AF9140
:1002D0009F918F917F916F915F914F913F912F915E
:1002E0000F900FBE0F901F9018951F920F920FB690
:1002F0000F9211242F933F934F935F936F937F93AC
:100300008F939F93AF93BF93EF93FF93E0E0FAE057
:1003100010828385838780E090E00E94810080E0E6
:1003200090E00E949100FF91EF91BF91AF919F915A
:100330008F917F916F915F914F913F912F910F908E
:100340000FBE0F901F9018950E945C00E0E0FAE04D
:1003500010A211A2118284E190E080A791A7E0E0B1
:10036000F6E08081808380818260808380818160EB
:100370008083868187608683848581608487828983
:1003800093898A60828B938B828582608287848145
:1003900081608483A0EAB4E055968C91559789607A
:1003A00055968C93559756968C915697896056968C
:1003B0008C93789480858160808781E090E00E94B2
:1003C00071008091042890910528009741F42091B4
:1003D000022830910328283031050CF4FFCF019713
:1003E00041F48091022890910328181619060CF404
:0C03F000FFCF80E090E00895F894FFCF6C
:00000001FF
