:100000000C9448000C9465000C9465000C946500F9
:100010000C9465000C9465000C9465000C946500CC
:100020000C9465000C9437010C945F010C946500EE
:100030000C9465000C9465000C9465000C946500AC
:100040000C9465000C9465000C9465000C9465009C
:100050000C9465000C9465000C9465000C9465008C
:100060000C9465000C9465000C9465000C9465007C
:100070000C9465000C9487010C9465000C94650049
:100080000C9465000C9465000C9465000C9465005C
:1000900011241FBECFEFCDBFDFE3DEBF18E2A0E02B
:1000A000B8E2ECE1F5E002C005900D92A630B10790
:1000B000D9F729E2A6E0B8E201C01D92A630B20746
:1000C000E1F70E94AE010C948C020C940000E0E673
:1000D000F4E0808181608083848181608483808179
:1000E0008260808384818260848380818460808355
:1000F0008481846084838081886080838481886037
:10010000848308958130910529F4E0E6F4E02481A8
:100110002E7F2483892B29F4E0E6F4E0848181603A
:10012000848308958130910529F4E0E6F4E0248188
:100130002D7F2483892B29F4E0E6F4E0848182601A
:10014000848308958130910529F4E0E6F4E0248168
:100150002B7F2483892B29F4E0E6F4E084818460FA
:10016000848308958130910529F4E0E6F4E0248148
:10017000277F2483892B29F4E0E6F4E084818860DA
:1001800084830895E0910428F0910528EE0FFF1F65
:10019000EE0FFF1FEE0FFF1FEA5FF74D8081918189
:1001A0000E948200E0910428F0910528EE0FFF1FC5
:1001B000EE0FFF1FEE0FFF1FEA5FF74D8281938165
:1001C0000E949200E0910428F0910528EE0FFF1F95
:1001D000EE0FFF1FEE0FFF1FEA5FF74D8481958141
:1001E0000E94A200E0910428F0910528EE0FFF1F65
:1001F000EE0FFF1FEE0FFF1FEA5FF74D868197811D
:100200000E94B20008950F931F93CF93DF938091C4
:10021000042890910528019680930428909305283E
:1002200000E010E01CC0C0910428D09105280E9475
:10023000190281709078992324F401978E6F9F6F33
:100240000196CC0FDD1FCC0FDD1FC00FD11FCC0FCF
:10025000DD1FCA5FD74D888399830F5F1F4F04301E
:1002600011050CF3DF91CF911F910F9108951F920B
:100270000F920FB60F9211242F933F934F935F93DA
:100280006F937F938F939F93AF93BF93EF93FF935E
:10029000E0E0FAE0838583870E940301FF91EF91FC
:1002A000BF91AF919F918F917F916F915F914F918E
:1002B0003F912F910F900FBE0F901F9018951F9296
:1002C0000F920FB60F9211242F933F934F935F938A
:1002D0006F937F938F939F93AF93BF93EF93FF930E
:1002E000E0E0FAE0838583870E94C200FF91EF91EE
:1002F000BF91AF919F918F917F916F915F914F913E
:100300003F912F910F900FBE0F901F9018951F9245
:100310000F920FB60F9211248F93EF93FF93E0EAA1
:10032000F4E081858187803249F4E0E0FAE082855B
:100330008061828780818160808308C0E0E0FAE08C
:10034000828580628287808181608083FF91EF91C6
:100350008F910F900FBE0F901F9018950E9467000D
:10036000E0E0FAE08EE080838EEF90E086A397A332
:100370008FE790E080A791A78CE390E082A793A7F6
:10038000818183608183E0EAF4E085898960858BDF
:1003900086898960868B7894FFCF8F929F92AF92E7
:1003A000BF92CF92DF92EF92FF92CF93DF93EC0157
:1003B000688179818A819B8161157105810591052B
:1003C00021F464E279ED8BE597E02DE133EF41E034
:1003D00050E00E94290249015A019B01AC01A7EAA1
:1003E000B1E40E9448026B017C01ACEEB4EFA501C0
:1003F00094010E945602DC01CB018C0D9D1DAE1DA7
:10040000BF1DB7FF03C00197A109B0488883998336
:10041000AA83BB839F77DF91CF91FF90EF90DF900E
:10042000CF90BF90AF909F908F9008950E94CD0184
:10043000089580E098E20E94CD010895A0E0B0E028
:100440008093002890930128A0930228B09303285A
:100450000895052E97FB1EF400940E94400257FD5C
:1004600007D00E945B0207FC03D04EF40C944002BC
:1004700050954095309521953F4F4F4F5F4F0895D0
:1004800090958095709561957F4F8F4F9F4F089500
:100490000E947D02A59F900DB49F900DA49F800D9A
:1004A000911D11240895B7FF0C9448020E94480240
:1004B000821B930B0895A1E21A2EAA1BBB1BFD0100
:1004C0000DC0AA1FBB1FEE1FFF1FA217B307E40733
:1004D000F50720F0A21BB30BE40BF50B661F771F8B
:1004E000881F991F1A9469F760957095809590956B
:1004F0009B01AC01BD01CF010895A29FB001B39F44
:10050000C001A39F700D811D1124911DB29F700D1C
:0C051000811D1124911D0895F894FFCF67
:06051C0001000000FFFFDA
:00000001FF
