:100000000C9448000C9465000C9465000C946500F9
:100010000C9465000C9465000C9465000C946500CC
:100020000C9465000C9491000C9465000C94650090
:100030000C9465000C9465000C9465000C946500AC
:100040000C9465000C9465000C9465000C9465009C
:100050000C9465000C9465000C9465000C9465008C
:100060000C9465000C9465000C9465000C9465007C
:100070000C9465000C9467000C9465000C9465006A
:100080000C9465000C9465000C9465000C9465005C
:1000900011241FBECFEFCDBFDFE3DEBF28E2A4E017
:1000A000B8E201C01D92A630B207E1F718E2A0E065
:1000B000B8E2E0EEF3E002C005900D92A430B10783
:1000C000D9F70E94B6000C94EE010C9400001F9228
:1000D0000F920FB60F9211248F939F93EF93FF937C
:1000E000E0EAF4E081858187E0E6F4E081E0848362
:1000F00083EF91E00197F1F700C0000082E0868372
:1001000084E0868381E090E0809304289093052822
:10011000FF91EF919F918F910F900FBE0F901F90C5
:1001200018951F920F920FB60F9211248F939F93E1
:10013000EF93FF93E0E0FAE0108283858387E0E6A7
:10014000F4E082E0868384E0868383EF91E0019788
:10015000F1F700C0000081E08483FF91EF919F914F
:100160008F910F900FBE0F901F901895E0E6F4E06E
:1001700080818160808381E086838081826080834A
:1001800082E0848380818460808384E08483E0EAE9
:10019000F4E085898960858B78948091042890911A
:1001A00005280197A1F4E0E0FAE010A211A2118263
:1001B00084E690E080A791A78EE0808380818160B3
:1001C000808380E1828710920428109205280E9483
:1001D0007B016AE070E00E940701009729F08830F7
:1001E000910511F00597C9F6E0E6F4E081E084831B
:1001F00083EF91E00197F1F700C0000084E086836F
:1002000083EC99E00197F1F700C00000C6CF97FB9F
:10021000072E16F4009407D077FD09D00E941B0129
:1002200007FC05D03EF4909581959F4F08957095F9
:1002300061957F4F0895AA1BBB1B51E107C0AA1F00
:10024000BB1FA617B70710F0A61BB70B881F991F77
:100250005A95A9F780959095BC01CD0108958F928C
:100260009F92AF92BF92CF92DF92EF92FF92CF9385
:10027000DF93EC01688179818A819B816115710529
:100280008105910521F464E279ED8BE597E02DE19C
:1002900033EF41E050E00E948B0149015A019B017C
:1002A000AC01A7EAB1E40E94AA016B017C01ACEEAB
:1002B000B4EFA50194010E94B801DC01CB018C0DC3
:1002C0009D1DAE1DBF1DB7FF03C00197A109B0481A
:1002D00088839983AA83BB839F77DF91CF91FF9017
:1002E000EF90DF90CF90BF90AF909F908F90089548
:1002F0000E942F01089580E098E20E942F01089546
:10030000A0E0B0E08093002890930128A0930228F9
:10031000B09303280895052E97FB1EF400940E94C5
:10032000A20157FD07D00E94BD0107FC03D04EF487
:100330000C94A20150954095309521953F4F4F4F19
:100340005F4F089590958095709561957F4F8F4F81
:100350009F4F08950E94DF01A59F900DB49F900DBF
:10036000A49F800D911D11240895B7FF0C94AA013C
:100370000E94AA01821B930B0895A1E21A2EAA1BC8
:10038000BB1BFD010DC0AA1FBB1FEE1FFF1FA21745
:10039000B307E407F50720F0A21BB30BE40BF50B42
:1003A000661F771F881F991F1A9469F760957095CB
:1003B000809590959B01AC01BD01CF010895A29F4E
:1003C000B001B39FC001A39F700D811D1124911D29
:1003D000B29F700D811D1124911D0895F894FFCFD7
:0403E0000100000018
:00000001FF
